:020000040800F2
:100000009807002055010008092B0008B5200008BA
:1000100000000000000000000000000000000000E0
:100020000000000000000000000000000F2B00088E
:1000300000000000000000000D2B0008112B00083C
:100040006701000800000000670100086701000860
:1000500067010008670100086701000867010008E0
:100060000000000067010008670100086701000840
:1000700095040008670100086701000800000000FF
:10008000B12B00080000000000000000A12B0008B8
:10009000000000006701000867010008B92000089F
:1000A0000000000067010008000000006701000870
:1000B00000F002F800F03EF80CA030C80838241810
:1000C0002D18A246671EAB4654465D46AC4201D190
:1000D00000F030F87E460F3E0FCCB6460126334284
:1000E00000D0FB1AA246AB46334318471C31000030
:1000F0003C310000103A02D378C878C1FAD85207D0
:1001000001D330C830C101D504680C6070470000CD
:100110000023002400250026103A01D378C1FBD823
:10012000520700D330C100D50B6070471FB51FBD0B
:1001300010B510BD00F07BF91146FFF7F7FF02F094
:1001400071FF00F093F903B4FFF7F2FF03BC00F076
:1001500099F900000748804707480047FEE7FEE797
:10016000FEE7FEE7FEE7FEE704480549054A064BC1
:10017000704700009F2B0008B10000089801002084
:10018000980700209803002098030020FEB505463C
:1001900010460C46184373D0AE468C460020AD1A6C
:1001A00001469C4167D36646002701243D46B61AA6
:1001B0009D4102D313463A462124654676462F04D4
:1001C000360C3E432D0CB61A9D4104D3150C1B046E
:1001D0002B4312041034654676462F06360A3E43FA
:1001E0002D0AB61A9D4104D3150E1B022B43120291
:1001F0000834654676462F0736093E432D09B61A60
:100200009D4104D3150F1B012B431201241D65468C
:100210007646AF07B6083E43AD08B61A9D4104D3F3
:10022000950F9B002B439200A41C65467646EF0772
:1002300076083E436D08B61A9D411AD392185B4169
:10024000641C16E00018764665464941B71A9D4180
:100250000191009009D36046B11A98418E468446B8
:10026000009801990025401C6941DD0752082A4386
:100270005B08641EE6D57246634603B0F0BDFFE737
:1002800000200146C046C0462A462346F5E701E065
:1002900004C0091F0429FBD28B0701D50280801CF2
:1002A000C90700D00270704700290BD0C30702D0E5
:1002B0000270401C491E022904D3830702D5028024
:1002C000801C891EE3E70022EEE70022DFE7002220
:1002D00003098B422CD3030A8B4211D300239C4683
:1002E0004EE003460B433CD4002243088B4231D3FB
:1002F00003098B421CD3030A8B4201D394463FE08F
:10030000C3098B4201D3CB01C01A524183098B42EE
:1003100001D38B01C01A524143098B4201D34B01D7
:10032000C01A524103098B4201D30B01C01A52413A
:10033000C3088B4201D3CB00C01A524183088B42C1
:1003400001D38B00C01A524143088B4201D34B00AA
:10035000C01A5241411A00D201465241104670471C
:100360005DE0CA0F00D04942031000D34042534021
:1003700000229C4603098B422DD3030A8B4212D3E1
:10038000FC22890112BA030A8B420CD38901921113
:100390008B4208D3890192118B4204D389013AD050
:1003A000921100E08909C3098B4201D3CB01C01A25
:1003B000524183098B4201D38B01C01A5241430938
:1003C0008B4201D34B01C01A524103098B4201D326
:1003D0000B01C01A5241C3088B4201D3CB00C01A93
:1003E000524183088B4201D38B00C01A5241D9D2AB
:1003F00043088B4201D34B00C01A5241411A00D22C
:100400000146634652415B10104601D34042002B27
:1004100000D54942704763465B1000D3404201B5A6
:100420000020C046C04602BD704770477047754601
:1004300000F024F8AE46050069465346C008C000E7
:10044000854618B020B5FFF78FFE60BC002749082D
:10045000B6460026C0C5C0C5C0C5C0C5C0C5C0C55C
:10046000C0C5C0C5403D49008D46704710B5044623
:10047000C046C0462046FFF766FE10BD00487047E4
:100480003401002001491820ABBEFEE7260002001F
:100490007047000010B5024800F0CEF810BD000013
:1004A0001000002072B600BFFEE70000F8B5044659
:1004B0000D4600260020009001210907E06A8842CD
:1004C00015D0E06A012812D0E06A02280FD0E06A55
:1004D00003280CD0E06A042809D0E06A052806D079
:1004E000E06A062803D0E06A072800D000BF00BFFA
:1004F0003420005D012801D10220F8BD0121342003
:10050000015500BF20688068042108408008002849
:100510007BD14449686888425BD02068806A2A7829
:100520000121914008432168886201210907E06A9E
:10053000884229D0E06A012826D0E06A022823D028
:10054000E06A032820D0E06A04281DD0E06A05286C
:100550001AD0E06A062817D0E06A072814D0A868E5
:10056000216849694907490F88420DD020684069D0
:10057000C008C0002168486120684069297A49079D
:10058000490F0843216848612868102802D028686C
:1005900011283FD1244880682968102901D1C90455
:1005A00001E00121890508431F4988602868102857
:1005B00030D11E491E480068FFF789FE0A214843D2
:1005C000009002E00098401E009000980028F9D1A9
:1005D00020E02068806A2A780121914088432168C0
:1005E00088622868102802D02868112812D10E4885
:1005F00080682968102902D1C90402E005E00121C0
:10060000890588430849886004E0A06B20210843DD
:10061000A063012600BF00213420015500BF3046F1
:100620006BE70000011000000027014040420F006E
:100630000C0000207047704770B5044620680568BC
:100640002068466804202840042802D1304004284D
:1006500006D00820284008283CD13040082839D14D
:10066000A06B10210840002803D1A06B490108436A
:10067000A0632068C068032189020840002823D1B4
:10068000A07E002820D10820284008281CD12068FE
:10069000806804210840800800280DD12068406847
:1006A0000C21884321684860A06BFF2101318843F9
:1006B00001210843A06307E0A06B20210843A06349
:1006C000E06B01210843E0632046FFF7B3FF0C20F5
:1006D000216808608020284080280DD13040802883
:1006E0000AD1A06B012109040843A063204600F051
:1006F00003F980202168086010202840102818D1B4
:100700003040102815D1A06A012805D02068C068A3
:10071000C007C00F002809D0E06B02210843E06346
:100720001020216808602046FFF785FF102021680F
:10073000086070BD70B5044600260025002C01D16C
:10074000012070BDA06B002806D1E0630021342099
:100750000155204600F0D2F8A06B10210840002877
:100760007ED1002EFCD120688068042108408008DA
:100770000028F5D1A06B8901884302210843A063BA
:10078000206880688007800F01280DD120680068EC
:10079000C007C00F002805D12068C0688903084041
:1007A000884201D1012000E0002000280FD12068FC
:1007B000C06818218843A16808432168C860206880
:1007C000006980008008616808432168086120682A
:1007D000C068474908402168C860207E8003617E68
:1007E000C9030843A17E49030843A16A012902D035
:1007F0000121090300E000210843E1680843216961
:10080000022901D1042100E0002108432421095DCF
:10081000490008430543E07E01280ED1A07E002850
:1008200003D101200004054307E0A06B2021084309
:10083000A063E06B01210843E063FF21C231E0695E
:10084000884203D0216AE069084305432068C068F4
:1008500028432168C86001210907E06A884200E056
:100860003EE014D0E06A012811D0E06A02280ED0E0
:10087000E06A03280BD0E06A042808D0E06A052863
:1008800005D0E06A062802D0E06A07280DD120686A
:100890004069C008C0002168486120684069A18D96
:1008A0004907490F0843216848612068C068114919
:1008B0000840A84208D10020E063A06B02218843D1
:1008C00001210843A06310E0A06B0221884310219E
:1008D0000843A063E06B01210843E063012604E0C4
:1008E000A06B10210843A0630126304629E70000D1
:1008F0001902FEFFE7FF3F837047000010B586B086
:100900000446142101A8FFF7E0FC1B492068884237
:100910002FD100BF194880694915084317498861DC
:100920000846806949150840009000BF00BF00BF1D
:100930001248406909020843104948610846406965
:10094000012149040840009000BF00BF0120019030
:10095000032002900020039001A90920C00600F0A6
:1009600055F8002211460C2000F052FB0C2000F03C
:1009700041FB06B010BD0000002401400010024001
:1009800070B5044600252120005D022803D0042014
:10099000A06301251EE0206800680E2188432168BD
:1009A0000860206800684008400021680860012055
:1009B000216C8840E16B486001212120015500BF76
:1009C00000212020015500BF606B002802D0204686
:1009D000616B8847284670BD01462120405C704706
:1009E00070B5044600F01AF906462546681C002832
:1009F00002D0054800782D1800BF00F00FF9801BC9
:100A0000A842FAD370BD00000800002078B5034664
:100A10000A460021DFE001268E4014683440002C95
:100A20007ED01579AD07AD0F012D04D01579AD0736
:100A3000AD0F022D18D198684E000325B54006462B
:100A4000AE4330464E00D568B5402843986058689C
:100A500001258D400646AE43304610265568354088
:100A60002D098D40284358601579AD07AD0F032D32
:100A70000BD0D8684E000325B5400646AE4330463D
:100A80004E009568B5402843D8601579AD07AD0F85
:100A9000022D15D1CD08AE001D462035A8594D07B1
:100AA000EE0E0F25B5400646AE4330464E07F60E15
:100AB0001569B5402843CD08AD001E46203670515B
:100AC00018684E000325B5400646AE4330461579FA
:100AD000AD07AD0F4E00B54028431860032636041D
:100AE00055683540002D75D000BF3E4DAD690126DB
:100AF00035433C4EB5613546AD69ED07ED0F0095C8
:100B000000BF00BF384D8E08B600A8598D072E0FC4
:100B10000F25B5400646AE4330460925ED0600E0F8
:100B200058E0AB4201D100250FE0304DAB4201D17E
:100B300001250AE02E4DAB4201D1022505E02D4DE5
:100B4000AB4201D1032500E005258E07360FB540E5
:100B50002843254D8E08B600A851274DA8680546A4
:100B6000A54328460126360555683540002D02D09C
:100B7000054625432846204DA860E8680546A5435C
:100B800028460126760555683540002D02D00546D9
:100B900025432846184DE86068680546A543284661
:100BA0000126760455683540002D02D005462543C0
:100BB0002846114D686028680546A5432846012649
:100BC000360455683540002D02D005462543284699
:100BD000094D2860491C1568CD40002D00D01AE74A
:100BE00078BD0000001002400800014000040048E9
:100BF00000080048000C0048000401400246136948
:100C00000B40002B01D0012000E000207047002A9B
:100C100001D0816100E081627047000001480068F6
:100C2000704700000000002002464120805C202820
:100C30002FD100BF4020805C012801D102207047E5
:100C400001234020835400BF242341208354106893
:100C500000684008400013681860106800680123AD
:100C60001B039843136818601068006808431368F2
:100C70001860106800680123184313681860202367
:100C80004120835400BF00234020835400BF002034
:100C9000D5E70220D3E710B502460B464120805C21
:100CA00020282ED100BF4020805C012801D10220E5
:100CB00010BD01244020845400BF242441208454CA
:100CC00010680068400840001468206010680168DF
:100CD0000F2424020846A04301461802014310686D
:100CE00001601068006801242043146820602024FB
:100CF0004120845400BF00244020845400BF0020C1
:100D0000D6E70220D4E770477047F8B5044620685C
:100D1000856920680668FF2001302840000A002805
:100D20000BD080203040C009002806D0606C012123
:100D30000843606408022168C861012080022840DD
:100D4000800A00280BD080203040C009002806D03F
:100D5000606C082108436064C8012168C8610120F3
:100D600040022840400A00280BD080203040C009B3
:100D7000002806D0606C02210843606408022168E4
:100D8000C861676C0B203840002803D039462046E4
:100D900001F074FAF8BD70B50446206885692068D2
:100DA0000668606B002804D0324629462046636BF3
:100DB000984770BD7047000010B50446002C01D163
:100DC000012010BD4120005D002805D100214020F8
:100DD0000155204600F05CF824214120015520688F
:100DE000006840084000216808600F21090660681B
:100DF000884321680861206880680121C90388430D
:100E000021688860E068012806D10121C903A06833
:100E100008432168886005E021218902A068084311
:100E200021688860E068022802D180022168486059
:100E30002068406814490843216848602068C068F9
:100E40000121C90388432168C8606169206908439A
:100E5000A169090208432168C860216AE069084362
:100E60002168086020680068012108432168086043
:100E700000206064202141200155002020630021D2
:100E80004220015500209CE70080000270470000CE
:100E900010B586B00446142101A8FFF716FA1F49C1
:100EA0002068884237D100BF1D48406901214904AC
:100EB00008431B494861084640690121490408402C
:100EC000009000BF00BF032040020190122002905A
:100ED00000200390032004900420059001A909201C
:100EE000C006FFF793FD00BF0D48C0690121490509
:100EF00008430B49C8610846C069012149050840FB
:100F0000009000BF00BF00221146172000F080F8BB
:100F1000172000F06FF806B010BD0000005400402C
:100F20000010024070477047034800680349097881
:100F300040180149086070470000002008000020A8
:100F400010B50648006810210843044908600320D2
:100F500000F006F800F02EF8002010BD002002403E
:100F600070B50446104801787D20C000FFF7AFF946
:100F7000064631460D480068FFF7A9F9054600F01E
:100F8000C1FC002801D0012070BD042C07D2002232
:100F90002146501E00F03CF80548046001E00120A5
:100FA000F2E70020F0E70000080000200C0000201D
:100FB0000400002008B500BF0D48806901210843E6
:100FC0000B49886108468069C007C00F009000BFC8
:100FD00000BF00BF0846C069090408430449C8614E
:100FE0000846C06909040840009000BF00BF08BD62
:100FF000001002400146002905DBCB06DB0E012272
:101000009A40024B1A6000BF7047000000E100E008
:1010100070B504460D4616462946204601F0C6FF27
:1010200070BD0000F8B50446002600250121090422
:101030002068084088427AD100274B48C0690903DC
:10104000084000280DD100BF4748C0690843464901
:10105000C8610846C06909040840009000BF00BF8D
:10106000012742480068FF2101310840002816D1BD
:101070003E48006808433D490860FFF7CFFD06463B
:1010800006E0FFF7CBFD801B642801D90320F8BDE3
:1010900036480068FF21013108400028F1D032486D
:1010A000006A0321090208400546002D2DD0606822
:1010B0000840A84229D02C48006A884305462A489F
:1010C000006A012109040843274908620846006AAA
:1010D0000121090488432449086208460562E8079B
:1010E000C00F002811D0FFF799FD064607E0FFF773
:1010F00095FD801B1E49884201D90320C7E71A4885
:10110000006A022108400028F1D01748006A032134
:10111000090288436168084313490862012F05D119
:101120000846C069090488430F49C86100BF207898
:10113000C007C00F002807D00B48006B8008800054
:10114000A168084308490863202120680840202836
:1011500007D10548006B10218843E1680843024924
:101160000863002093E70000001002400070004078
:101170008813000070B504460D46002C01D10120F3
:1011800070BD52480068C007C00FA8420ED24F4839
:1011900000684008400028434C4908600846006841
:1011A000C007C00FA84201D00120E9E70221206852
:1011B0000840022814D1042120680840042807D1DF
:1011C0004348406807210902884340184049486065
:1011D0003F484068F0218843A16808433C49486083
:1011E0002078C007C00F00283BD06068012808D1D4
:1011F00037480068012149040840002815D1012022
:10120000BEE76068022808D131480068012149061C
:101210000840002809D10120B2E72D4800680221CA
:101220000840002801D10120AAE729484068800829
:1012300080006168084326494860FFF7EFFC0646D6
:1012400007E0FFF7EBFC801B2249884201D903200D
:1012500096E71F4840680C21084061688900884271
:10126000EFD11A480068C007C00FA8420ED917482E
:101270000068400840002843144908600846006898
:10128000C007C00FA84201D0012079E704212068DF
:101290000840042808D10E48406807210902884305
:1012A000E16808430A49486000F01AF808494968AB
:1012B000F02211400909084A515CC84007490860FA
:1012C0000320FFF74DFE00205AE7000000200240F7
:1012D0000010024088130000F03100080C000020CC
:1012E000F8B50024002500270026002000901D48A6
:1012F00044680C20204000282DD0042802D0082863
:1013000028D102E01848009028E00F2080042040F7
:10131000800C16490E5C1348C06A0007000F144980
:101320000D5C0120000420400121090488420AD1FB
:101330002A4600230C481946FEF728FF314601F0E3
:101340001DFE074604E00B48314601F017FE074634
:10135000009703E000BF0448009000BF00BF009862
:10136000F8BD00000010024000127A00D0310008E1
:10137000E031000800093D00FEB50446002C01D113
:101380000120FEBD2078C007C00F002871D0FC48A6
:1013900040680C21084004280BD0F94840680840F8
:1013A000082812D1F6484068012109040840884203
:1013B0000BD1F348006801214904084000286BD094
:1013C0006068002868D10120DBE700BF6068012861
:1013D00007D1EB480068012109040843E849086087
:1013E00031E0606800280ED1E54800680121090459
:1013F0008843E3490860084600680121890488435E
:10140000DF4908601FE0606805280ED1DC480068ED
:10141000012189040843DA4908600846006801216F
:1014200009040843D64908600DE0D5480068012149
:1014300009048843D24908600846006801218904EC
:101440008843CF49086000BF6068002812D0FFF7CA
:10145000E5FB054606E0FFF7E1FB401B642801D9E8
:1014600003208EE7C648006801214904084000288F
:10147000F1D011E0FFF7D2FB054606E0FFF7CEFB07
:10148000401B642801D903207BE7BD480068012187
:10149000490408400028F1D10221206808400228B0
:1014A00061D1B74840680C21084000280BD0B448EF
:1014B0004068084008281BD1B14840680121090450
:1014C0000840002814D1AE480068022108400028D6
:1014D00004D0E068012801D0012052E7A848006844
:1014E000F82188432169C9000843A54908603AE00A
:1014F000E068002820D0A248006801210843A049E4
:101500000860FFF78BFB054606E0FFF787FB401BF3
:10151000022801D9032034E79948006802210840D5
:101520000028F2D096480068F82188432169C90054
:1015300008439349086016E091480068400840005D
:101540008F490860FFF76AFB054606E0FFF766FB78
:10155000401B022801D9032013E7894800680221B3
:1015600008400028F2D1082120680840082831D11D
:10157000E069002817D08248406A01210843804969
:101580004862FFF74BFB054606E0FFF747FB401BB1
:10159000022801D90320F4E67948406A0221084074
:1015A0000028F2D016E07648406A400840007449AE
:1015B0004862FFF733FB054606E0FFF72FFB401BB1
:1015C000022801D90320DCE66D48406A0221084068
:1015D0000028F2D1042120680840042873D100209B
:1015E00001906748C0698906084000280ED100BFF5
:1015F0006348C06908436249C8610846C069090474
:101600000840009000BF00BF012001905D480068C5
:10161000FF2101310840002816D15A4800680843CC
:1016200058490860FFF7FAFA054606E0FFF7F6FAB0
:10163000401B642801D90320A3E652480068FF211B
:10164000013108400028F1D000BFA068012806D170
:101650004B48006A01210843494908622BE0A06811
:1016600000280CD14648006A4008400044490862FE
:101670000846006A04218843414908621BE0A068CB
:1016800005280CD13E48006A042108433C49086201
:101690000846006A01210843394908620BE03848CE
:1016A000006A40084000364908620846006A042182
:1016B00088433349086200BFA068002813D0FFF7B1
:1016C000ADFA054608E02BE0FFF7A8FA401B2E49CB
:1016D000884201D9032054E62948006A02210840C3
:1016E0000028F1D011E0FFF799FA054607E0FFF76F
:1016F00095FA401B2449884201D9032041E620483D
:10170000006A022108400028F1D10198012806D181
:101710001B48C0690121090788431949C86100BFF6
:10172000102120680840102860D1606901282DD15F
:101730001348406B04210843114948630846406B35
:10174000012108430E494863FFF768FA054606E0A1
:10175000FFF764FA401B022801D9032011E608486C
:10176000406B022108400028F2D00548406BF82168
:101770008843A169C90008430149486336E0000075
:101780000010024000700040881300006069401D96
:1017900000280FD15A48406B0421884358494863B8
:1017A0000846406BF8218843A169C90008435449A1
:1017B00048631BE05248406B04210843504948638A
:1017C0000846406B400840004863FFF727FA05468B
:1017D00006E0FFF723FA401B022801D90320D0E5D9
:1017E0004748406B022108400028F2D1206A0028B7
:1017F0004FD0434840680C210840082864D0206A34
:10180000022847D13E4800680121090688433C4927
:101810000860FFF703FA054606E0FFF7FFF9401BF3
:10182000022801D90320ACE53548006801214906AA
:1018300008400028F1D100BF3148C06A000900010A
:10184000E16A08432E49C862616AA06A08432C49CC
:1018500049683D221204914308432949486000BF6A
:101860000846006801210906084325490860FFF77A
:10187000D5F9054606E0FFF7D1F9401B022801D94A
:1018800003207EE51E480068012149060840002823
:10189000F1D033E01A48006801210906884318494D
:1018A0000860FFF7BBF9054606E0FFF7B7F9401BF4
:1018B000022801D9032064E5114800680121490686
:1018C00008400028F1D119E0206A012800D158E52C
:1018D0000B484668C76A012000043040616A8842AC
:1018E0000AD13907090FE06A814205D10F2080042F
:1018F0003040A16A884201D0012042E5002040E545
:101900000010024070B504462546681E0949884209
:1019100001D901200CE0681E074948610321081F16
:1019200001F044FB00200449886107200861002081
:1019300070BD0000FFFFFF0000E000E0704770474F
:1019400030B502460B4600BF3C20805C012801D127
:10195000022030BD01253C20855400BF02253D20DA
:101960008554106844681068816870252046A84333
:10197000044618680443106844600D4D1068A8427E
:1019800003D00C4D1068A84207D180250846A84313
:101990000146586801431068816001253D20855447
:1019A00000BF00253C20855400BF0020D1E7000087
:1019B000002C01400004004010B50446002C01D169
:1019C000012010BD3D20005D002805D100213C20F4
:1019D0000155204600F022F802213D200155211D2D
:1019E000206801F0EDF801214620015500BF3E209E
:1019F00001553F200155402001554120015500BFB0
:101A000000BF422001554320015544200155452087
:101A1000015500BF3D2001550020D2E738B50446EE
:101A20001A492068884216D100BF1948C0690221AE
:101A300008431749C8610846C06902210840009060
:101A400000BF00BF002211461020FFF7E1FA10206E
:101A5000FFF7D0FA19E00F492068884215D100BF7E
:101A60000B48C069891508430949C8610846C0691F
:101A700089150840009000BF00BF002211461320C6
:101A8000FFF7C6FA1320FFF7B5FA38BD000400408F
:101A90000010024000200040F8B504460D4600202A
:101AA000009000BF3C20005D012801D10220F8BD5C
:101AB00001213C20015500BF02213D200155206835
:101AC00086687721304688430646FF210902304662
:101AD00088430646206886602868502834D00CDC8D
:101AE000202851D004DC00284CD0102852D14AE0E4
:101AF00030284AD040284DD13AE060282ED07028B6
:101B000007D001210903401A02D0401A42D10DE04A
:101B100043E0EB686A68A968206801F0AAF82068C9
:101B20008668772006432068866036E0EB686A683E
:101B3000A968206801F09DF8206880680121890368
:101B400008432168886028E0EA686968206801F035
:101B5000E3F95021206801F09AF81EE0EA6869680C
:101B6000206801F0F2F96021206801F090F814E09B
:101B7000EA686968206801F0CFF94021206801F027
:101B800086F80AE000BF00BF00BF2968206801F0A6
:101B90007EF802E00120009000BF00BF01213D203F
:101BA000015500BF00213C20015500BF00987EE791
:101BB000704710B5044620680069022108404008BB
:101BC00000281CD02068C06808404008002816D0B3
:101BD000481F2168086101202077206880698007FC
:101BE000800F002803D02046FFF7E2FF05E02046E3
:101BF00000F034F9204600F0EAF900202077206850
:101C0000006904210840800800281DD02068C068B1
:101C100008408008002817D0C843216808610220C6
:101C2000207720688069032109020840002803D03A
:101C30002046FFF7BDFF05E0204600F00FF92046E3
:101C400000F0C5F9002020772068006908210840CD
:101C5000C00800281CD02068C0680840C0080028C0
:101C600016D0C84321680861042020772068C06925
:101C70008007800F002803D02046FFF799FF05E07A
:101C8000204600F0EBF8204600F0A1F90020207774
:101C90002068006910210840000900281DD0206834
:101CA000C06808400009002817D0C84321680861AF
:101CB000082020772068C069032109020840002815
:101CC00003D02046FFF774FF05E0204600F0C6F879
:101CD000204600F07CF90020207720680069C007CA
:101CE000C00F01214840484000280CD02068C0683F
:101CF000084048404840002805D0C81E21680861B7
:101D0000204600F0D5F92068006980210840C0090C
:101D100000280BD02068C0680840C009002805D002
:101D2000C843216808612046FFF708FE2068006963
:101D300040210840800900280BD02068C068084076
:101D40008009002805D0C84321680861204600F0BA
:101D5000B0F92068006920210840400900280BD014
:101D60002068C06808404009002805D0C8432168A1
:101D700008612046FFF7E3FD10BD000010B586B0F6
:101D80000446142101A8FEF7A0FA304920688842D1
:101D900038D100BF2E484069491308432C49486197
:101DA00008464069012149040840009000BF00BF77
:101DB00000BF274840694900084325494861084653
:101DC0004069012189040840009000BF00BF402005
:101DD00001900220029000200390049001200590C1
:101DE00001A90920C006FEF711FE02200190029011
:101DF0000020039004900120059001A91548FEF7EA
:101E000005FE20E01449206888421CD100BF10481C
:101E10004069090108430E494861084640690121AB
:101E200049040840009000BF00BF1020019002202C
:101E300002900020039004900420059001A909203D
:101E4000C006FEF7E3FD06B010BD00000004004030
:101E50000010024000040048002000407047F8B520
:101E600004460D461646002700BF3C20005D0128B1
:101E700001D10220F8BD01213C20015500BF002EF8
:101E800006D0042E1BD0082E33D00C2E62D147E092
:101E90002946206800F008FF20688069082108436F
:101EA00021688861206880690421884321688861ED
:101EB0002068806929690843216888614CE02946C7
:101EC000206800F03FFF206880690121C9020843B3
:101ED000216888612068806901218902884321681E
:101EE000886120688069296909020843216888613E
:101EF00032E02946206800F07DFF2068C069082193
:101F000008432168C8612068C069042188432168AA
:101F1000C8612068C069296908432168C8611BE05D
:101F20002946206800F0BCFF2068C0690121C90271
:101F300008432168C8612068C0690121890288437B
:101F40002168C8612068C0692969090208432168BD
:101F5000C86101E0012700BF00BF00BF00213C2095
:101F6000015500BF384685E710B50446002C01D165
:101F7000012010BD3D20005D002805D100213C203E
:101F80000155204600F022F802213D200155211D77
:101F9000206800F015FE01214620015500BF3E20BB
:101FA00001553F200155402001554120015500BFFA
:101FB00000BF4220015543200155442001554520D2
:101FC000015500BF3D2001550020D2E77047704702
:101FD00070B504460D46002D02D13E20005D0BE099
:101FE000042D02D13F20005D06E0082D02D14020E3
:101FF000005D01E04120005D012801D0012070BD9D
:10200000002D03D102213E2001550EE0042D03D105
:1020100002213F20015508E0082D03D10221402074
:10202000015502E002214120015501222946206884
:1020300000F00EFE1A492068884207D0194920682E
:10204000884203D018492068884201D1012000E06D
:102050000020002806D02068406C0121C9030843F5
:10206000216848640E492068884203D00F492068DF
:1020700088420CD1206880684607760F062E0CD067
:1020800020680068012108432168086005E0206895
:10209000006801210843216808600020AFE70000C4
:1020A000002C014000440140004801400004004071
:1020B0007047704700BFFEE710B5084800688069A8
:1020C000072109020840002803D00448FEF71DFE3E
:1020D00002E00248FEF75FFE10BD00005000002045
:1020E00070B505466C6AA06B002802D00020A16B79
:1020F0004863E06B002802D00020E16B4863204673
:1021000000F07EFB70BD10B502460020CB07DB0F50
:10211000002B09D04223184341239B5C28242340F1
:10212000282B01D0B023184302230B40022B09D1E6
:102130004423184341239B5C28242340282B01D0AF
:10214000B02318430123DB030B400124E403A34223
:1021500001D1B8231843102901D190231843202915
:1021600001D120231843402901D14023184313688B
:102170001B6883431468236010BD016889690222CB
:1021800011404908002902D00021026891620168CB
:102190008969C907C90F012251405140002904D162
:1021A000016889691143026891617047F8B5044676
:1021B0004120005D28210840282856D120688069E8
:1021C000012109040840070C206880697F21490427
:1021D0000840050C206880688605B60D2068C06838
:1021E000FE2108400090E06802282ED106202840F9
:1021F000F11106221140884216D13546A06C401CD0
:10220000A064A06C022838D10020A06408202168B6
:10221000C86100BF00214020015500BF2A46394651
:102220002046FEF771FD28E0009D0121C9032046EC
:10223000FFF769FF00BF00214020015500BF2A467B
:1022400039462046FEF760FD17E00121C90320460C
:10225000FFF759FF00BF00214020015500BF2A466B
:1022600039462046FEF750FD07E008202168C86186
:1022700000BF00214020015500BFF8BDF8B504465D
:102280000F464120065D0021422001554E48E06284
:1022900000206085606C38436064282E03D0292EAE
:1022A00001D02A2E09D103212046FFF72CFF282137
:1022B000412001554548606326E045492046FFF727
:1022C00022FF2046FFF759FF4120005D602819D00A
:1022D00020214120015520688069084040090028DC
:1022E00010D020688069102108400009002806D01D
:1022F00010202168C861606C0421084360642020BC
:102300002168C86100206063256BA06B002829D07C
:10231000112D01D0212D25D12068006801218903CC
:102320000840884204D1206800688843216808601A
:10233000A06BFEF751FB012810D02648A16B486323
:1023400000BF00214020015500BFA06BFEF718FB25
:10235000002837D0A06B416B884733E0204600F05F
:102360004FFA2FE0E06B002829D0122D01D0222D4A
:1023700025D1206800680121C9030840884204D1A2
:1023800020680068884321680860E06BFEF724FB42
:10239000012810D00F48E16B486300BF00214020A6
:1023A000015500BFE06BFEF7EBFA00280AD0E06BA6
:1023B000416B884706E0204600F022FA02E0204602
:1023C00000F01EFAF8BD00000000FFFF852600089F
:1023D00003800000E120000870B504460D461A484D
:1023E000E06200202063202141200155002142208D
:1023F000015500206063042028408008002813D085
:102400002068406A616A0870606A401C6062208DC2
:10241000002809D0208D401E2085608D401E6085DB
:10242000606C04210843606408492046FFF76BFE96
:1024300010202168C86100BF00214020015500BF65
:102440002046FEF723FD70BD0000FFFF0380000063
:10245000F3B581B0044620680768029E4120055DFF
:1024600020202168C861212D01D0292D06D15B498A
:102470002046FFF748FE212020630AE0222D01D0EC
:102480002A2D06D15549491C2046FFF73CFE222043
:102490002063206840680121C9030843216848601F
:1024A000206840684E490840216848602046FFF790
:1024B00064FE012080033840800B00280ED0206885
:1024C000006801218903884321680860A06B002807
:1024D00018D0A06B00684068608513E00120C0033D
:1024E0003840C00B00280DD0206800680121C903C6
:1024F000884321680860E06B002803D0E06B006827
:1025000040686085042030408008002813D00421F2
:102510003046884306462068406A616A0870606AEF
:10252000401C6062208D002805D0208D401E208533
:10253000608D401E6085608D002803D0606C042192
:102540000843606400214220015500206063606CF4
:1025500000280CD0616C2046FFF790FE4120005D02
:1025600028283AD131462046FFF736FF35E0E06AA9
:102570001C49884212D0204600F036F81948E06223
:102580002021412001550020206300BF0021402070
:10259000015500BF2046FEF779FC1EE04120005D9A
:1025A00022280DD12021412001550020206300BFA9
:1025B00000214020015500BF2046FEF7B3FC0CE08F
:1025C0002021412001550020206300BF0021402030
:1025D000015500BF2046FEF7A6FCFEBD01800000AD
:1025E00000E800FE0000FFFF70B5044620680568A3
:1025F000002142200155012080032840800B002843
:1026000007D0206800680121890388432168086099
:102610000CE00120C0032840C00B002806D0206831
:1026200000680121C9038843216808604120005DDA
:10263000292811D128214120015521202063012181
:102640002046FFF760FD00BF00214020015500BF7C
:102650002046FEF768FC14E04120005D2A2810D1D6
:102660002821412001552220206302212046FFF726
:102670004AFD00BF00214020015500BF2046FEF763
:1026800051FC70BDF7B504461646E56A019F00BFD0
:102690004020005D012801D10220FEBD0121402023
:1026A000015500BF202038404009002808D02020D4
:1026B00030404009002803D039462046FFF7C8FEC5
:1026C00010203840000900283AD01020304000097E
:1026D000002835D0608D002821D14120005D2828B8
:1026E00008D101204006854204D139462046FFF733
:1026F00073FE7CE04120005D29280CD13F488542D3
:1027000009D010202168C8612046FFF736FD204619
:10271000FFF76AFF6BE010202168C86167E01020B6
:102720002168C861606C042108436064002D02D0F8
:10273000880585425BD1616C2046FFF79FFD56E01E
:1027400004203840800800281ED004203040800833
:10275000002819D0608D00280CD02068406A616A7A
:102760000870606A401C6062208D401E2085608D6C
:10277000401E6085608D002839D12048854236D0C2
:102780002046FFF731FF32E008203840C00800281B
:1027900009D008203040C008002804D0394620461F
:1027A000FFF704FD23E002203840400800281ED037
:1027B000022030404008002819D0608D00280DD03C
:1027C000606A007821688862606A401C6062608D7F
:1027D000401E6085208D401E208508E001200006F7
:1027E000854201D0002D02D12046FFF7FDFE00BF3B
:1027F00000214020015500BF00204EE70000FFFFF0
:1028000010B504464120005D60280DD120214120F3
:1028100001550020206300BF00214020015500BF6A
:102820002046FEF770FA09E00020206300BF002177
:102830004020015500BF2046FEF7BCFA10BD70B520
:1028400004460D4629462046FEF7D8F9012800D156
:1028500070BD0020FCE700000EB500200090019044
:102860000290194819490860002048600021174863
:102870008160C16001210161042141610021017673
:1028800041768176C176FF21C231C16100210162AA
:1028900024300170012124388162FDF74BFF0028AC
:1028A00001D0FDF7FFFD0020009001200003019002
:1028B0000004029069460548FDF7F8FD002801D0A4
:1028C000FDF7F0FD0EBD00000024014010000020C7
:1028D00000B587B0142102A8FDF7F7FC00BF24481B
:1028E000406901218905084321494861084640693A
:1028F000012189050840019000BF00BF00BF1C48AE
:102900004069491108431A49486108464069012154
:1029100049040840019000BF00BF00BF144840694F
:102920004900084312494861084640690121890469
:102930000840019000BF00BF012211460D48FEF77C
:1029400066F901200290039000200490059002A9EE
:102950000848FEF75BF80E200290002003900490D8
:1029600002A90920C006FEF751F807B000BD00001B
:10297000001002400014004810B5134813490860C5
:10298000134848600021114881600121C160002185
:10299000016141618161C1610162FEF70DFA0028A8
:1029A00001D0FDF77FFD00210848FEF73DF9002822
:1029B00001D0FDF777FD00210448FEF76CF90028EF
:1029C00001D0FDF76FFD10BD005400405000002005
:1029D0000E09002000B587B01C216846FDF775FC84
:1029E000164817490860002048600021144881609B
:1029F0001449C160002101618161FEF7DDFF0028FB
:102A000001D0FDF74FFD0E48FFF7AEFA002801D0C8
:102A1000FDF748FD60200090002001900290049096
:102A2000002269460648FFF71AFA002801D0FDF790
:102A300039FD0348FFF7A2F907B000BD00200040B0
:102A4000EC0000208713000000B58DB00020099035
:102A50000A900B900C90079008901C216846FDF797
:102A600034FC26482649086000204860002124489C
:102A700081602449C160002101618161FEF79CFFF2
:102A8000002801D0FDF70EFD01200003099009A9DF
:102A90001B48FFF701F8002801D0FDF703FD184897
:102AA000FFF762FA002801D0FDF7FCFC0020079038
:102AB000089007A91248FEF743FF002801D0FDF750
:102AC000F1FC602000900020019002900490002210
:102AD00069460B48FFF7C3F9002801D0FDF7E2FC77
:102AE0000C2269460648FFF7BAF9002801D0FDF725
:102AF000D9FC0348FFF742F90DB000BD00040040C7
:102B0000A40000208713000000BFFEE77047704755
:102B100010B5FEF709FA10BD00B595B0302109A82F
:102B2000FDF7D3FB002005900690079008900190D8
:102B30000290039004901220099001200C900E90B6
:102B400010200D900F90022011900021129105216C
:102B5000C90413910021149109A8FEF70DFC002867
:102B600001D0FDF79FFC0720059002200690002071
:102B700007900890012105A8FEF7FCFA002801D073
:102B8000FDF790FC202001900020049001A8FEF7A2
:102B900049FA002801D0FDF785FC15B000BD70474B
:102BA00010B50248FFF705F810BD0000EC0000204A
:102BB00010B50248FEF7FDFF10BD0000A400002084
:102BC00010B502681D4B984202D01D4B984205D1AA
:102BD00070241346A3431A464B681A43174B984276
:102BE0000BD0174B984208D0164B984205D0164B85
:102BF000984202D0154B984206D103242402134672
:102C0000A3431A46CB681A4380241346A3434C6956
:102C100023431A4602608B68C3620B688362074BCA
:102C2000984205D0084B984202D0084B984201D1F7
:102C30000B6903630123436110BD0000002C0140B8
:102C400000040040002000400044014000480140D2
:102C500070B5CD06ED0E0124AC402346046A9C43BA
:102C60000462046ACE06F60E1546B5402C43046293
:102C700070BD70B50C468168FF2636020D46B5431F
:102C800029461D02154325432943816070BD10B5B7
:102C90000A46816870240B46A34319460723134351
:102CA0001943816010BD000070B5056A6D086D00A4
:102CB0000562026A4368846970262546B5432C463E
:102CC000A408A4000D682C4302261546B5432A46E5
:102CD0008D682A43184DA84200D107E0174DA8423D
:102CE00000D103E0164DA8420AD100BF08261546C0
:102CF000B5432A46CD682A4304261546B5432A46DD
:102D00000D4DA84205D00D4DA84202D00C4DA84251
:102D10000CD1FF2601361D46B5432B4676001D46D5
:102D2000B5432B464D692B438D692B43436084612A
:102D30004D684563026270BD002C014000440140B3
:102D40000048014070B5056A1026B5430562026A65
:102D500043688469072636032546B5432C46032677
:102D600036022546B5432C460D682D022C432026FD
:102D70001546B5432A468D682D012A431A4DA842AF
:102D800000D107E0194DA84200D100BF184DA8425C
:102D90000BD10AE080261546B5432A46CD682D01A1
:102DA0002A4340261546B5432A460F4DA84205D072
:102DB0000E4DA84202D00E4DA8420ED10126B602F9
:102DC0001D46B5432B4676001D46B5432B464D693F
:102DD000AD002B438D69AD002B43436084614D688A
:102DE0008563026270BD0000002C01400044014078
:102DF0000048014070B5056AFF260136B5430562FB
:102E0000026A4368C46970262546B5432C46A40867
:102E1000A4000D682C43012676021546B5432A46C8
:102E20008D682D022A431B4DA84200D107E01A4DA0
:102E3000A84200D100BF194DA8420CD10BE00126D9
:102E4000F6021546B5432A46CD682D022A43761070
:102E50001546B5432A460F4DA84205D00E4DA8424F
:102E600002D00E4DA8420ED1012636031D46B543B1
:102E70002B4676001D46B5432B464D692D012B434D
:102E80008D692D012B434360C4614D68C5630262A7
:102E900070BD0000002C014000440140004801408A
:102EA00070B5056A01263603B5430562046A4368B6
:102EB000C269072636031546B5432A46032636025D
:102EC0001546B5432A460D682D022A43012676038E
:102ED0002546B5432C468D682D032C430B4DA84247
:102EE00005D00B4DA84202D00A4DA84207D10126B9
:102EF000B6031D46B5432B464D69AD012B434360D8
:102F0000C2614D680564046270BD0000002C014080
:102F1000004401400048014070B50B461446026A67
:102F2000056A6D086D0005628169F0260D46B5439E
:102F30002946250129430A261546B5432A46154642
:102F40001D432A468161026270BD70B50B4614466E
:102F5000056A1026B54305628169026A0F263603A9
:102F60000D46B543294625032943A0261546B543FA
:102F70002A461D012A438161026270BDF8B582B202
:102F80008BB2040C0D0C10465843002126465E43BC
:102F9000370C36048019794116466E43370C3604D7
:102FA0008019794126466E438919F8BD10B500286D
:102FB00019DB1A4A03231B02D21883089B00D2583C
:102FC0008307DC0EFF23A3409A438B071B0E840765
:102FD000E40EA3401A43114B032424021B19840856
:102FE000A4001A5118E00E4A03071B0F083B9B0868
:102FF0009B00D2588307DC0EFF23A3409A438B0724
:103000001B0E8407E40EA3401A43054B0407240F4C
:10301000083CA408A4001A5110BD000000E100E023
:103020001CED00E0FDF78CFFFFF776FDFFF750FC8D
:10303000FFF712FCFFF7A0FCFFF706FDFFF7CAFC45
:1030400000216048FEF7C4FF0C215E48FEF7C0FF78
:1030500000215D48FEF7BCFF012211465B48FDF7E9
:10306000D6FD00240125ACE002210920C006FFF7AF
:10307000E6FB01282AD1C820FDF7B2FC0421092073
:10308000C006FFF7DCFB012805D1601CC4B2012C8F
:103090000DDA00240BE004210920C006FFF7CFFB66
:1030A000002804D1601EC4B2012C00DA0024642080
:1030B00060434449096848636420604341490968A2
:1030C000086464206043404909684863042109207A
:1030D000C006FFF7B4FB012853D1C820FDF780FCE0
:1030E00004210920C006FFF7AAFB012849D1002DC1
:1030F0000DD100203349096848639A203149096895
:1031000008640320304909684863012539E0012D2E
:103110000CD100202B49096848632A4909680864D2
:10312000C82029490968486302252AE0022D0DD1EB
:10313000D520244909684863192022490968086490
:103140000F2021490968486303251AE0032D0BD19C
:10315000C8201C49096848631A49096808641A4963
:103160000968486304250CE0042D0AD100201549A4
:103170000968486313490968086413490968486382
:10318000002508210920C006FFF759FB012818D1A6
:10319000C820FDF725FC08210920C006FFF74FFBDA
:1031A000012804D1601EC4B2012C00DA00240120E1
:1031B00004490968486303490968086402490968C1
:1031C000486351E7A4000020EC00002000140048F0
:1031D00002030405060708090A0B0C0D0E0F101058
:1031E0000102030405060708090A0B0C0D0E0F1057
:1031F00000000000000000000102030406070809A7
:103200000000000001020304283200080000002032
:1032100010000000F4000008383200081000002000
:1032200088070000100100080000000004000000F2
:083230000100000000127A0009
:04000005080000B13E
:00000001FF
